{
  "_format": "hh-sol-artifact-1",
  "contractName": "uploadPhoto",
  "sourceName": "contracts/photo_upload.sol",
  "abi": [
    {
      "inputs": [
        {
          "internalType": "address",
          "name": "",
          "type": "address"
        }
      ],
      "name": "owner_number_images",
      "outputs": [
        {
          "internalType": "uint256",
          "name": "",
          "type": "uint256"
        }
      ],
      "stateMutability": "view",
      "type": "function"
    },
    {
      "inputs": [],
      "name": "retrieve_images",
      "outputs": [
        {
          "internalType": "string[]",
          "name": "",
          "type": "string[]"
        }
      ],
      "stateMutability": "view",
      "type": "function"
    },
    {
      "inputs": [
        {
          "internalType": "string",
          "name": "base64_image",
          "type": "string"
        },
        {
          "internalType": "string",
          "name": "name",
          "type": "string"
        }
      ],
      "name": "uploadImage",
      "outputs": [],
      "stateMutability": "nonpayable",
      "type": "function"
    }
  ],
  "bytecode": "0x608060405234801561001057600080fd5b50610a09806100206000396000f3fe608060405234801561001057600080fd5b50600436106100415760003560e01c806319976f8114610046578063a91b831414610076578063c82cd18f14610092575b600080fd5b610060600480360381019061005b91906105cc565b6100b0565b60405161006d9190610754565b60405180910390f35b610090600480360381019061008b91906105f5565b6100c8565b005b61009a610200565b6040516100a79190610732565b60405180910390f35b60016020528060005260406000206000915090505481565b600060405180606001604052808381526020018481526020013373ffffffffffffffffffffffffffffffffffffffff16815250908060018154018082558091505060019003906000526020600020906003020160009091909190915060008201518160000190805190602001906101409291906104ac565b50602082015181600101908051906020019061015d9291906104ac565b5060408201518160020160006101000a81548173ffffffffffffffffffffffffffffffffffffffff021916908373ffffffffffffffffffffffffffffffffffffffff1602179055505050600160003373ffffffffffffffffffffffffffffffffffffffff1673ffffffffffffffffffffffffffffffffffffffff16815260200190815260200160002060008154809291906101f7906108d5565b91905055505050565b60606000600160003373ffffffffffffffffffffffffffffffffffffffff1673ffffffffffffffffffffffffffffffffffffffff1681526020019081526020016000205467ffffffffffffffff811115610283577f4e487b7100000000000000000000000000000000000000000000000000000000600052604160045260246000fd5b6040519080825280602002602001820160405280156102b657816020015b60608152602001906001900390816102a15790505b5090506000805b6000805490508110156104a3573373ffffffffffffffffffffffffffffffffffffffff166000828154811061031b577f4e487b7100000000000000000000000000000000000000000000000000000000600052603260045260246000fd5b906000526020600020906003020160020160009054906101000a900473ffffffffffffffffffffffffffffffffffffffff1673ffffffffffffffffffffffffffffffffffffffff16141561049057600081815481106103a3577f4e487b7100000000000000000000000000000000000000000000000000000000600052603260045260246000fd5b906000526020600020906003020160010180546103bf906108a3565b80601f01602080910402602001604051908101604052809291908181526020018280546103eb906108a3565b80156104385780601f1061040d57610100808354040283529160200191610438565b820191906000526020600020905b81548152906001019060200180831161041b57829003601f168201915b5050505050838381518110610476577f4e487b7100000000000000000000000000000000000000000000000000000000600052603260045260246000fd5b6020026020010181905250818061048c906108d5565b9250505b808061049b906108d5565b9150506102bd565b50819250505090565b8280546104b8906108a3565b90600052602060002090601f0160209004810192826104da5760008555610521565b82601f106104f357805160ff1916838001178555610521565b82800160010185558215610521579182015b82811115610520578251825591602001919060010190610505565b5b50905061052e9190610532565b5090565b5b8082111561054b576000816000905550600101610533565b5090565b600061056261055d846107a0565b61076f565b90508281526020810184848401111561057a57600080fd5b610585848285610861565b509392505050565b60008135905061059c816109bc565b92915050565b600082601f8301126105b357600080fd5b81356105c384826020860161054f565b91505092915050565b6000602082840312156105de57600080fd5b60006105ec8482850161058d565b91505092915050565b6000806040838503121561060857600080fd5b600083013567ffffffffffffffff81111561062257600080fd5b61062e858286016105a2565b925050602083013567ffffffffffffffff81111561064b57600080fd5b610657858286016105a2565b9150509250929050565b600061066d83836106ea565b905092915050565b6000610680826107e0565b61068a8185610803565b93508360208202850161069c856107d0565b8060005b858110156106d857848403895281516106b98582610661565b94506106c4836107f6565b925060208a019950506001810190506106a0565b50829750879550505050505092915050565b60006106f5826107eb565b6106ff8185610814565b935061070f818560208601610870565b610718816109ab565b840191505092915050565b61072c81610857565b82525050565b6000602082019050818103600083015261074c8184610675565b905092915050565b60006020820190506107696000830184610723565b92915050565b6000604051905081810181811067ffffffffffffffff821117156107965761079561097c565b5b8060405250919050565b600067ffffffffffffffff8211156107bb576107ba61097c565b5b601f19601f8301169050602081019050919050565b6000819050602082019050919050565b600081519050919050565b600081519050919050565b6000602082019050919050565b600082825260208201905092915050565b600082825260208201905092915050565b600061083082610837565b9050919050565b600073ffffffffffffffffffffffffffffffffffffffff82169050919050565b6000819050919050565b82818337600083830152505050565b60005b8381101561088e578082015181840152602081019050610873565b8381111561089d576000848401525b50505050565b600060028204905060018216806108bb57607f821691505b602082108114156108cf576108ce61094d565b5b50919050565b60006108e082610857565b91507fffffffffffffffffffffffffffffffffffffffffffffffffffffffffffffffff8214156109135761091261091e565b5b600182019050919050565b7f4e487b7100000000000000000000000000000000000000000000000000000000600052601160045260246000fd5b7f4e487b7100000000000000000000000000000000000000000000000000000000600052602260045260246000fd5b7f4e487b7100000000000000000000000000000000000000000000000000000000600052604160045260246000fd5b6000601f19601f8301169050919050565b6109c581610825565b81146109d057600080fd5b5056fea264697066735822122073c3cee19b7ca339913b20e4f58b1bd4004c14dc63f6c1eb5599a11198263f5264736f6c63430008000033",
  "linkReferences": {},
  "deployedLinkReferences": {}
}